:020000040000FA
:04000000B4EF17F052
:102F1E0097EC17F01200E721CB6B2D6EEE23EF6FBF
:102F2E00000E956E9250F00B926E8050F00B806EEC
:102F3E0012008FEC17F001C015F002C014F003C0A0
:102F4E0013F004C012F0120E0B6E000E0C6ECBECD2
:102F5E0017F0A2EF17F000EF00F0240EF66E2F0E12
:102F6E00F76E000EF86E00EE01F010EE0AF009009A
:102F7E00F5CFEEFFE550E150FAE1156A146A136AD7
:102F8E00126A0001A0EF17F0000E116E11500B2403
:102F9E00D96E000E0C20DA6EDF50836E11C00DF06C
:102FAE00010E0E6E0D2ADEEF17F0D8900E360D2E96
:102FBE00DCEF17F08050F00B0E10806E030E106ECB
:102FCE00E80E0F6E0F06D8A010060F2806E1102887
:102FDE00D8A4F4EF17F0F6EF17F0E9EF17F0112A77
:102FEE00030E1164FDEF17F0FFEF17F0CDEF17F0A2
:022FFE001200BF
:020000040020DA
:08000000FFFFFFFFFFFFFFFF00
:020000040030CA
:0E000000FF071F1FFF8285FF0FC00FE00F409C
:00000001FF
